:020000040800F2
:1000000000500020611E0008450C0008470C000845
:10001000490C00084B0C00084D0C000800000000C3
:100020000000000000000000000000004F0C00086D
:10003000510C000800000000530C0008550C00088B
:10004000A91E0008A91E0008A91E0008A91E000874
:10005000A91E0008A91E0008A91E0008A91E000864
:10006000A91E0008A91E0008A91E0008A91E000854
:10007000A91E0008A91E0008A91E0008A91E000844
:10008000A91E0008A91E0008A91E0008A91E000834
:10009000A91E0008A91E0008A91E0008A91E000824
:1000A000A91E0008A91E0008A91E0008A91E000814
:1000B000A91E0008A91E0008A91E0008A91E000804
:1000C000A91E0008A91E0008A91E0008A91E0008F4
:1000D000A91E0008A91E0008A91E0008A91E0008E4
:1000E0005D0C0008A91E0008A91E00080000000001
:1000F0000000000000000000000000000000000000
:0C01000000000000000000005FF808F1A3
:10010C0010B5054C237833B9044B13B10448AFF345
:10011C0000800123237010BD540800200000000053
:10012C00C828000808B5034B1BB103490348AFF3BB
:10013C00008008BD0000000058080020C8280008F6
:10014C0000B585B000230193029303931148124A22
:10015C0002608360037303754FF46022C2614360D5
:10016C000123036100F084FF68B906230193012386
:10017C0002930023039301A9064800F0ABFE28B9B3
:10018C0005B05DF804FB00F05DF9EEE700F05AF9FC
:10019C00F6E700BF700800200024014000B587B0CE
:1001AC00002302930393049305930268114B9A4224
:1001BC0002D007B05DF804FB03F56C439A6942F476
:1001CC0000729A619A6902F400720092009A9A691C
:1001DC0042F004029A619B6903F004030193019BB2
:1001EC00402302930323039302A9034801F030F840
:1001FC00DFE700BF002401400008014003280CD0B9
:10020C00042810D0022801D0002070474FF0804302
:10021C00586A00B200225A627047064B586A00B204
:10022C0000225A627047044B586A00B200225A628C
:10023C00704700BF0004004000080040002800DBAD
:10024C0070474042FCE7000030B583B00246F0B97D
:10025C00E9B1304803680B440360A3F10B00B0F51F
:10026C00AE7F04D802202C4C20702C4C2070A3F2B2
:10027C007310B0F5AE7F04D80120274C2070274CAA
:10028C002070B3F5347F02D9224B002018600A2964
:10029C001DD00C2400940223214A12783221002014
:1002AC0000F020FA1C4D009402232A7832210846D3
:1002BC0000F018FA00940223184A127832216420B4
:1002CC0000F010FA00F04CF9287803B030BD002A89
:1002DC00DFD01046FFF7B2FF124B1A6810441860BB
:1002EC00431EB3F5B37F04D804230B4A13700C4A96
:1002FC001370A0F27313B3F5AE7F04D80323064A30
:10030C001370074A1370B0F5347FC2D9054B002225
:10031C001A60BEE700000020A2080020A1080020FF
:10032C00A0080020A40800202DE9F04188B000248A
:10033C0004940594069407943E4B9A6942F020026B
:10034C009A619A6902F020020192019A9A6942F02C
:10035C0004029A619A6902F004020292029A9A6962
:10036C0042F008029A619B6903F008030393039B14
:10037C00314E01221021304601F07CF822464FF418
:10038C000041304601F076F82C4F22463821384691
:10039C0001F070F801224FF44071384601F06AF810
:1003AC00102304930125059506944FF00208CDF80F
:1003BC001C800DEB0301304600F04AFF2023049310
:1003CC000594069404A9304600F042FF4FF4805384
:1003DC0004931B4B0593069504A9304600F038FF97
:1003EC004FF40043049305950694079504A93046F1
:1003FC0000F02EFF4FF442730493059506940323EB
:10040C00079304A9384600F023FF30230493059585
:10041C000694079504A9384600F01AFF2A4641466F
:10042C00282000F0BBFE282000F0F0FE08B0BDE84C
:10043C00F08100BF0010024000080140000C014098
:10044C000000111072B6FEE700B595B0282200210D
:10045C000DEB020002F002F80023059306930793BC
:10046C0008930993019302930393049301220A9234
:10047C004FF480330B930E920222119212934FF48D
:10048C00E01313930AA801F021F8B0B90F230593D8
:10049C0002210691002307930893099305A801F004
:1004AC0055FA60B9022301930023039301A801F0CC
:1004BC0003FB30B915B05DF804FBFFF7C3FFFFF782
:1004CC00C1FFFFF7BFFF08B500F0CCFCFFF7BCFF86
:1004DC00FFF72AFFFFF734FE00F0E0FB00F016FCFC
:1004EC0000F04EF900F0F0FA0220FFF787FE044608
:1004FC000420FFF783FE41426042FFF7A5FE00F0A7
:10050C005DFBF1E729B1144B0122C3F8BC21002398
:10051C0010E0114B0022C3F8BC21F8E70F4A002170
:10052C00C2F890110D4A0121C2F894118840C0B252
:10053C000B44DBB2072B0AD8084A0021C2F89411ED
:10054C0010F0800FEAD00121C2F89011EAE7024BBB
:10055C000122C3F8BC2170470000214200802142D7
:10056C0038B500250DE0104B03EBC4030121585D99
:10057C00FFF7C8FF0134E4B214F0800FF3D001355B
:10058C00EDB2072D0FD8A5F150000021C0B2FFF736
:10059C00B9FF00210846FFF7B5FF00211020FFF737
:1005AC00B1FF0024E8E738BDA808002008B50020FA
:1005BC000BE0094A02EBC302002111540133DBB2F8
:1005CC0013F0800FF5D00130C0B2072801D80023FA
:1005DC00F6E7FFF7C5FF08BDA808002010F0800F54
:1005EC0020D13F291ED8CB08C3F10703DBB201F0A1
:1005FC000701C1F107014FF0010C0CFA01F15FFA90
:10060C0081FC42B1084A02EBC000C25C4CEA020C0D
:10061C0000F803C07047044A02EBC000C25C22EA37
:10062C000101C154704700BFA80800202DE9F04F0C
:10063C0083B0804689461F469DF830B0203AD3B22D
:10064C0001930C464FF0000A2DE0019B03EB430392
:10065C001C4A02EB830313F80A502EE0BBFA8BF210
:10066C00520921464046FFF7B9FF6D00EDB2013447
:10067C00E4B2A4EB0903BB420CD00136F6B2072E50
:10068C000DD815F0800FE9D05A4621464046FFF7A9
:10069C00A5FFEAE708F101085FFA88F84C460AF171
:1006AC00010A5FFA8AFABA4509D20C2FCDD0064B53
:1006BC00019A03EB021313F80A500026DFE703B08C
:1006CC00BDE8F08FE0280008542D000802460120F8
:1006DC0002E002FB00F019464B1EDBB20029F8D1F8
:1006EC00704700002DE9F04782B08246894690465B
:1006FC001D469DF8286000273C461DE0700804FB51
:10070C0000F0C0B2504401230093334620224946E6
:10071C00C0B2FFF78BFF0DE0700804FB00F0C0B215
:10072C0030325044012300933346D2B24946C0B212
:10073C00FFF77CFF0134E4B2AC421CD2291BC9B2D6
:10074C000139C9B20A20FFF7C1FFB8FBF0F00B4A20
:10075C00A2FB003C4FEADC0C0CEB8C0CA0EB4C0C21
:10076C005FFA8CF2002FD7D16B1E9C42D4DA002A90
:10077C00C4D00127D0E702B0BDE8F087CDCCCCCCFB
:10078C0038B5384D0024C5F88C41642000F08EFB40
:10079C000123C5F88C312146AE20FFF7B3FE21466C
:1007AC00D520FFF7AFFE21465020FFF7ABFE2146C8
:1007BC00A820FFF7A7FE21463F20FFF7A3FE214606
:1007CC00D320FFF79FFE21462046FFF79BFE2146D4
:1007DC004020FFF797FE21468D20FFF793FE214620
:1007EC001420FFF78FFE21462020FFF78BFE2146B9
:1007FC000220FFF787FE2146A120FFF783FE21464A
:10080C00C020FFF77FFE2146DA20FFF77BFE214652
:10081C001220FFF777FE21468120FFF773FE214659
:10082C00EF20FFF76FFE2146D920FFF76BFE214624
:10083C00F120FFF767FE2146DB20FFF763FE214620
:10084C003020FFF75FFE2146A420FFF75BFE214618
:10085C00A620FFF757FE2146AF20FFF753FEFFF708
:10086C00A5FE38BD008021420368E3B110B4436893
:10087C000024D0F808C0CCF8084000E09B6863B1B5
:10088C00B3F800C08C45F9D1B3F802C09445F5D14A
:10089C00836842689A60012003E0836842689A602A
:1008AC00002010BC70470020704783684360D3F869
:1008BC0004C0C0F808C0198043685A807047000013
:1008CC0008B5084BDA889988074B1868FFF7CCFFF6
:1008DC00012802D0054BD87808BD044B0022DA70F1
:1008EC00F8E700BFBC0C0020C80C0020B00C0020A6
:1008FC0008B50C2001F0FEFA002202608260426012
:10090C0008BD38B505460C460C2001F0F3FA0580FD
:10091C00448000228260426038BD10B5044608460F
:10092C001146FFF7EEFF636863B15860636883603C
:10093C006060A3684360A36862689A6023680133AF
:10094C00236010BDA060F3E72DE9F041174680004D
:10095C001FFA80F889008EB2454609E03A46E1B2AA
:10096C00E8B2FFF73BFE0134F31CA342F6DA013583
:10097C0008F10303AB4201DB3446F5E7BDE8F08137
:10098C0008B51B4B1B78042B06D0032B0ED0022B67
:10099C0018D0012B20D008BD164B99880844012291
:1009AC00134BD98880B2FFF7CFFFF4E7114B99882E
:1009BC00081A80B2043001220D4BD98880B2FFF79F
:1009CC00C3FFE8E70A4BD9880144012289B2094BDD
:1009DC009888FFF7B9FFDEE7054BD988081A81B272
:1009EC000431012289B2034B9888FFF7ADFFD2E79F
:1009FC00B00C0020BC0C002010B51D4B1B689A6875
:100A0C00B2F802C051684B889C450CD0A3EB0C0388
:100A1C00002B21DD174B59890144002289B218891A
:100A2C00FFF792FF10BD0B8812889B1A002B08DD74
:100A3C00104B198908440022598980B2FFF784FFB2
:100A4C00F0E70C4B1989081A80B20430002259893E
:100A5C0080B2FFF779FFE5E7064C6389191A89B272
:100A6C000431002289B22089FFF76EFFDAE700BF5C
:100A7C00C80C0020B00C002008B5104B1868026898
:100A8C000F4B9B789A4213DA0E4BDA889988FFF752
:100A9C0044FF0C4A91880A4B9980D288DA80074A25
:100AAC001268916809881981926852885A8108BD28
:100ABC00044BDA889988FFF7F8FEEAE7C80C0020A7
:100ACC00B00C0020BC0C002038B51C4C0423237047
:100ADC0063700125E570002219498A80A370A280F9
:100AEC00E3802281638117498A808B80FFF700FFA6
:100AFC00154B1860E288A188FFF70FFF2A46E188A2
:100B0C00A088FFF721FF14E00C4CA188013189B2B9
:100B1C00A180E2880C4B1868FFF7FFFE0122E188E8
:100B2C00A088FFF711FF642000F0C0F9FFF718FD53
:100B3C000135024B9B78AB42E6DC38BDB00C002093
:100B4C00A80C0020BC0C0020C80C002070B5FFF7CE
:100B5C00B7FE18B3164B9A88164B1B889A4202D0D4
:100B6C00002600240AE0124BDA88124B5B889A426A
:100B7C0001D00026F5E70126F3E70134032C09DC4C
:100B8C00E5B22846FFF7FCFE002EF6D12846FFF70B
:100B9C0033FFF2E71EB9FFF76FFF012070BD064A65
:100BAC00937801339370034B00229A80F3E700BFD4
:100BBC00BC0C0020A80C0020B00C002008B50128AB
:100BCC0004D0FFF7C3FFFFF7CBFC08BD054B1B7828
:100BDC00042BF6D1044A938801339380014B0422F1
:100BEC001A70EEE7B00C0020BC0C002000B583B0EE
:100BFC000F4B9A6942F001029A619A6902F0010264
:100C0C000092009ADA6942F08052DA61DB6903F0F3
:100C1C0080530193019B052000F0AEFA054A5368FE
:100C2C0023F0E06343F00073536003B05DF804FB02
:100C3C000010024000000140FEE7FEE7FEE7FEE781
:100C4C00FEE770477047704708B500F01DF908BD06
:100C5C0008B54FF4805000F015FC08BD08B50346EC
:100C6C000B4A126842B10A4A106803446A4693421E
:100C7C0006D8074A136008BD054A06491160F2E719
:100C8C0001F00EF90C2303604FF0FF30F3E700BFC7
:100C9C00CC0C0020A80D00207047000000B58DB0D2
:100CAC002422002103A801F0D9FB00230193029315
:100CBC0015484FF080420260436083604FF6FF722C
:100CCC00C2600361836103230393012205920A230B
:100CDC00079309920B9303A900F0B4FF70B900239A
:100CEC000193029301A9084801F07EF848B93C2110
:100CFC00054801F012F80DB05DF804FBFFF7A2FBFC
:100D0C00EDE7FFF79FFBF2E7D00C002000B58DB0AC
:100D1C002422002103A801F0A1FB002301930293DC
:100D2C001448154A0260436083604FF6FF72C2603C
:100D3C00036183610123039305930A2207920993AC
:100D4C000B9203A900F07EFF70B90023019302936C
:100D5C0001A9084801F048F848B93C21054800F0C1
:100D6C00DCFF0DB05DF804FBFFF76CFBEDE7FFF764
:100D7C0069FBF2E7180D00200008004000B589B0AF
:100D8C00002304930593069307930368B3F1804FF4
:100D9C0005D01D4A93421DD009B05DF804FB03F544
:100DAC000433DA6942F00102DA61DA6902F0010215
:100DBC000092009A9A6942F004029A619B6903F0CE
:100DCC0004030193019B0323049304A90F4800F02F
:100DDC003FFAE1E70E4BDA6942F00402DA61DA69B4
:100DEC0002F004020292029A9A6942F008029A6195
:100DFC009B6903F008030393039BC023049304A98A
:100E0C00044800F025FAC7E700080040000801403C
:100E1C0000100240000C014010B504460E4B18782F
:100E2C004FF47A73B3FBF0F30C4A1068B0FBF3F099
:100E3C0000F0FAF968B90F2C01D901200AE0002260
:100E4C0021464FF0FF3000F0A9F9054B1C60002043
:100E5C0000E0012010BD00BF0800002004000020AD
:100E6C000C00002008B5074A136843F01003136008
:100E7C00032000F081F90320FFF7CEFFFFF7B6FE49
:100E8C00002008BD00200240034A1168034B1B7868
:100E9C000B441360704700BF600D00200800002059
:100EAC00014B1868704700BF600D002038B5044630
:100EBC00FFF7F6FF0546B4F1FF3F02D0044B1B7859
:100ECC001C44FFF7EDFF401BA042FAD338BD00BF16
:100EDC000800002030B482B00022019290F8242047
:100EEC00012A00F091800346012280F824204A68F0
:100EFC00062A2DD80468606B02EB8202053A4FF08B
:100F0C001F0C0CFA02FC20EA0C000D6805FA02F228
:100F1C00024362630A68092A3AD91C68E06802EB4A
:100F2C0042021E3A4FF0070C0CFA02FC20EA0C00AD
:100F3C008D6805FA02F20243E2600A68103A012A4F
:100F4C0036D90020002283F8242002B030BC704730
:100F5C000C2A0ED80568286B02EB8202233A1F2458
:100F6C00944020EA04000C6804FA02F202432A635B
:100F7C00D0E70568E86A02EB8202413A1F249440EC
:100F8C0020EA04000C6804FA02F20243EA62C1E7A8
:100F9C001C68206902EB42024FF0070C0CFA02FCB1
:100FAC0020EA0C008D6805FA02F202432261C4E7C4
:100FBC001A681648824205D09A6A42F020029A6258
:100FCC000120BFE7906810F4000F1BD1906840F42B
:100FDC00000090600A68102A01D00020B2E70C4A89
:100FEC0012680C49A1FB0212920C02EB8202520015
:100FFC00019202E0019A013A0192019A002AF9D178
:10100C0000209FE700209DE702209EE7002401407E
:10101C000400002083DE1B4338B503689A6812F085
:10102C00010F01D1002038BD04469A6822F001025C
:10103C009A60FFF735FF054623689B6813F0010F94
:10104C0013D0FFF72DFF431B022BF5D923689B68A8
:10105C0013F0010FF0D0A36A43F01003A362E36A0C
:10106C0043F00103E3620120DDE70020DBE7000031
:10107C0000287BD070B50446836A002B4DD02046E7
:10108C00FFF7CAFFA36A13F0100369D1002867D1D8
:10109C00A26A22F4885222F0020242F00202A262F8
:1010AC006268E1690A43217B42EA4102A568B5F511
:1010BC00807F02D0012D36D01D46267D012E35D0E5
:1010CC002668716821F46941294371602568AE680E
:1010DC00274931401143A960A168B1F5807F01D047
:1010EC00012902D12369013B1B052568E96A21F41A
:1010FC0070010B43EB62236899681E4B0B409A42BC
:10110C0025D0A36A23F0120343F01003A362E36A11
:10111C0043F00103E362012027E0C36280F824302E
:10112C00FFF73CF8ABE74FF48075C6E731B9A1691E
:10113C00013945EA413141F40065C1E7A16A41F04A
:10114C002001A162E16A41F00101E162B8E70023EC
:10115C00E362A36A23F0030343F00103A36204E0F8
:10116C00A36A43F01003A362012070BD01207047F5
:10117C00FDF7E1FFFE0E1FFF074AD36823F4E0637F
:10118C001B041B0C000200F4E060034343F0BF633C
:10119C0043F40033D360704700ED00E000B5194B09
:1011AC00DB68C3F30223C3F1070CBCF1040F28BFA7
:1011BC004FF0040C03F1040EBEF1060F18D9033BDB
:1011CC004FF0FF3E0EFA0CFC21EA0C0199400EFA8E
:1011DC0003F322EA0303194300280BDB0901C9B20C
:1011EC0000F1604000F5614080F800135DF804FBED
:1011FC000023E5E700F00F000901C9B2024B1954B6
:10120C00F4E700BF00ED00E014ED00E0002807DB80
:10121C0000F01F02400901239340024A42F820309B
:10122C00704700BF00E100E00138B0F1807F0BD2C5
:10123C004FF0E0235861054AF02182F8231000207A
:10124C00986107221A6170470120704700ED00E099
:10125C0070B582B00024A446A6E0804DAA4210D0FE
:10126C0007D97F4DAA420CD005F58035AA4208D08B
:10127C0013E0A5F58015AA4203D005F57025AA4206
:10128C0007D18A68002A58D0012A51D0436108241A
:10129C0003E0A5F58015AA42F3D0BEF1FF0F4ED89E
:1012AC000646BEF1FF0F4CD84FEA8C0233680F256F
:1012BC00954023EA050304FA02F2134333604B68AA
:1012CC0013F0805F6ED0674B9A6942F001029A610D
:1012DC009B6903F001030193019B4FEA9C02951C4F
:1012EC00614B53F825600CF003039D000F23AB40BA
:1012FC0026EA03065D4B984229D003F58063984299
:10130C0000F08E8003F58063984200F08B8003F52B
:10131C008063984219D004231AE0CC68BDE7CC68EE
:10132C000434BAE7CC680834B7E7CC680C34B4E7BB
:10133C0003610824B1E70024AFE70424ADE7061DE0
:10134C00AFE7ACF108029200B0E7032300E0002302
:10135C00AB4033430232444D45F822304B6813F412
:10136C00803F61D0424A136843EA0E0313604B6816
:10137C0013F4003F5ED03E4A536843EA0E035360B9
:10138C004B6813F4801F5BD0394A936843EA0E0311
:10139C0093604B6813F4001F58D0354AD36843EA66
:1013AC000E03D3600CF1010C0A6832FA0CF353D023
:1013BC00012303FA0CF302EA030E33EA0202F1D121
:1013CC004A68122A3FF649AF122A3FF666AF01A5CA
:1013DC0055F822F08F12000827130008311300086B
:1013EC0043130008A7120008A7120008A712000850
:1013FC00A7120008A7120008A7120008A7120008DD
:10140C00A7120008A7120008A7120008A7120008CC
:10141C00A7120008A71200082B13000837130008A6
:10142C00012395E7022393E7114A136823EA0E037D
:10143C0013609CE70E4A536823EA0E0353609FE740
:10144C000B4A936823EA0E039360A2E7084AD36819
:10145C0023EA0E03D360A5E702B070BD0000221092
:10146C000000311000100240000001400008014053
:10147C00000401400AB10161704709040161704721
:10148C007047000008B5054B5B69034200D108BDED
:10149C00024B5861FFF7F4FFF9E700BF000401406D
:1014AC0082B0084B1B68084AA2FB03235B0A00FBB3
:1014BC0003F3019300BF019B5A1E0192002BF9D13B
:1014CC0002B0704704000020D34D6210002800F0D9
:1014DC00F18170B582B00446036813F0010F2CD073
:1014EC00994B5B6803F00C03042B1DD0964B5B6887
:1014FC0003F00C03082B12D06368B3F5803F41D086
:10150C00002B55D103F1804303F504331A6822F400
:10151C0080321A601A6822F480221A6037E08A4BF3
:10152C005B6813F4803FE7D0874B1B6813F4003FD4
:10153C0003D06368002B00F0BF81236813F0020F07
:10154C0075D0814B5B6813F00C0F5FD07E4B5B68E2
:10155C0003F00C03082B54D02369002B00F08A8075
:10156C007A4B01221A60FFF79BFC0546764B1B68F1
:10157C0013F0020F75D1FFF793FC401B0228F5D92D
:10158C0003209EE1704A136843F480331360636850
:10159C0043B3FFF785FC05466B4B1B6813F4003F08
:1015AC00CBD1FFF77DFC401B6428F5D9032088E1E3
:1015BC00B3F5A02F09D0644B1A6822F480321A605C
:1015CC001A6822F480221A60E1E703F18043A3F544
:1015DC003C331A6842F480221A601A6842F4803252
:1015EC001A60D4E7FFF75CFC0546574B1B6813F4F5
:1015FC00003FA2D0FFF754FC401B6428F5D9032010
:10160C005FE1514B5B6813F4803FA5D14E4B1B68D7
:10161C0013F0020F03D02369012B40F04F814A4A8B
:10162C00136823F0F803616943EAC103136023686C
:10163C0013F0080F33D0A369002B5CD0434B01226D
:10164C00C3F88024FFF72CFC05463F4B5B6A13F074
:10165C00020F21D1FFF724FC401B0228F5D90320EF
:10166C002FE1394A136823F0F803616943EAC10397
:10167C001360DCE7354B00221A60FFF711FC0546BE
:10168C00314B1B6813F0020FD1D0FFF709FC401B44
:10169C000228F5D9032014E10120FFF701FF23688C
:1016AC0013F0040F00F09680274BDB6913F0805F7A
:1016BC0034D1254BDA6942F08052DA61DB6903F0F0
:1016CC0080530193019B0125214B1B6813F4807FF0
:1016DC0026D0E368012B3DD0002B53D103F180437E
:1016EC0003F504331A6A22F001021A621A6A22F014
:1016FC0004021A6233E0154B0022C3F88024FFF772
:10170C00CFFB0546104B5B6A13F0020FC7D0FFF7F7
:10171C00C7FB401B0228F5D90320D2E00025D3E7F4
:10172C000B4A136843F480731360FFF7B9FB06464A
:10173C00074B1B6813F4807FCBD1FFF7B1FB801BE9
:10174C006428F5D90320BCE000100240000042429E
:10175C00007000405F4A136A43F001031362E368B0
:10176C0033B3FFF79DFB06465A4B1B6A13F0020F6F
:10177C002FD1FFF795FB801B41F288339842F3D9A8
:10178C0003209EE0052B09D0524B1A6A22F001026D
:10179C001A621A6A22F004021A62E0E74D4B1A6AC6
:1017AC0042F004021A621A6A42F001021A62D6E787
:1017BC00FFF776FB0646474B1B6A13F0020F08D067
:1017CC00FFF76EFB801B41F288339842F3D903205C
:1017DC0077E0E5B9E369002B72D03E4A526802F01B
:1017EC000C02082A56D0022B17D03B4B00221A664B
:1017FC00FFF756FB0446374B1B6813F0007F47D0AE
:10180C00FFF74EFB001B0228F5D9032059E0314AA3
:10181C00D36923F08053D361DCE72F4B00221A6687
:10182C00FFF73EFB05462B4B1B6813F0007F06D0E1
:10183C00FFF736FB401B0228F5D9032041E0236A51
:10184C00B3F5803F1AD023494B6823F47413226AF2
:10185C00606A024313434B601F4B01221A66FFF769
:10186C001FFB04461B4B1B6813F0007F0ED1FFF7C8
:10187C0017FB001B0228F5D9032022E0154A5368F8
:10188C0023F40033A1680B435360DCE7002018E01D
:10189C00002016E0012B16D00E4B5B6803F4803150
:1018AC00226A914211D103F47013626A93420ED1F1
:1018BC00002006E001207047012002E0012000E03A
:1018CC00002002B070BD0120FBE70120F9E70120E8
:1018DC00F7E700BF001002400000424286B0174BF1
:1018EC000FCB0DF1180C0CE90F0040F20123ADF8F1
:1018FC000430134B5B6803F00C02082A02D0114829
:10190C0006B07047C3F3834218326A4412F8100CC5
:10191C0013F4803F0DD00A4B5B68C3F3404318337C
:10192C006B4413F8143C074A02FB00F0B0FBF3F0D5
:10193C00E6E7054B03FB00F0E2E700BF5433000879
:10194C000010024000127A0000093D00002800F04F
:10195C00A08070B50D460446524B1B6803F007037C
:10196C008B420BD24F4A136823F007030B431360CF
:10197C00136803F007038B4240F08D80236813F04B
:10198C00020F17D013F0040F04D0474A536843F4E6
:10199C00E0635360236813F0080F04D0424A536885
:1019AC0043F460535360404A536823F0F003A1683A
:1019BC000B435360236813F0010F31D06368012B84
:1019CC0020D0022B25D0384A126812F0020F64D0B6
:1019DC0035494A6822F0030213434B60FFF760FA63
:1019EC000646314B5B6803F00C036268B3EB820F65
:1019FC0016D0FFF755FA801B41F288339842F0D984
:101A0C00032045E0284A126812F4003FE0D101207F
:101A1C003EE0254A126812F0007FD9D1012037E050
:101A2C00204B1B6803F00703AB420AD91D4A13680D
:101A3C0023F007032B431360136803F00703AB4237
:101A4C002DD1236813F0040F06D0174A536823F4E2
:101A5C00E063E1680B435360236813F0080F07D071
:101A6C00114A536823F46053216943EAC10353605C
:101A7C00FFF734FF0C4B5B68C3F303130B4AD35CC7
:101A8C00D8400B4B18600B4B1868FFF7C5F90020BA
:101A9C0070BD012070470120FAE70120F8E7012012
:101AAC00F6E700BF0020024000100240443300085B
:101ABC00040000200C00002070B582B004460368BE
:101ACC0013F0010F36D03F4BDB6913F0805F49D127
:101ADC003C4BDA6942F08052DA61DB6903F08053E7
:101AEC000193019B0125384B1B6813F4807F3BD07D
:101AFC00344B1B6A13F4407313D0626802F44072C7
:101B0C009A420ED02F4A136A23F440702F490126B3
:101B1C00C1F840640026C1F84064106213F0010F54
:101B2C0036D1284A136A23F4407361680B4313625D
:101B3C00002D3ED1236813F0020F06D0214A5368C2
:101B4C0023F44043A1680B435360236813F0100F38
:101B5C0034D01C4A536823F48003E1680B43536070
:101B6C0000202CE00025BEE7174A136843F480736D
:101B7C001360FFF795F90646134B1B6813F4807F2F
:101B8C00B6D1FFF78DF9801B6428F5D9032016E038
:101B9C00FFF786F906460B4B1B6A13F0020FC0D1F8
:101BAC00FFF77EF9801B41F288339842F3D903206A
:101BBC0005E0D36923F08053D361BBE7002002B06A
:101BCC0070BD00BF00100240007000400000424297
:101BDC0003681B4A90420AD0B0F1804F07D0A2F59F
:101BEC009432904203D002F58062904203D123F0EC
:101BFC0070034A681343124A90420AD0B0F1804FE6
:101C0C0007D0A2F59432904203D002F58062904244
:101C1C0003D123F44073CA68134323F080034A6949
:101C2C00134303608B68C3620B688362044B984256
:101C3C0002D00123436170470B690363F9E700BFCE
:101C4C00002C0140002857D070B50D46044690F882
:101C5C003D30002B4BD0022384F83D302268936832
:101C6C0023F4804323F007039360214651F8040BBF
:101C7C00FFF7AEFF21688A688B690E6A28681043EB
:101C8C0023F4407C2CF0030CAA68AB6942EA0323D2
:101C9C0043EA0C0323F47C4323F0FC03EA69D5F8F4
:101CAC000CC04CEA022C4CEA030C2A6A13032A6976
:101CBC0043EA021343EA0C0326F022066A686D69B4
:101CCC0042EA05123243886021688B6123681A62EC
:101CDC00012384F8463084F83E3084F83F3084F891
:101CEC00423084F8433084F83D30002070BD80F8D9
:101CFC003C30FFF743F8AEE70120704701F01F01BD
:101D0C00012303FA01FC036A23EA0C030362036A4E
:101D1C0002FA01F10B430362704738B5044690F8A0
:101D2C003E00C0B294F83F3094F84220D2B294F8FE
:101D3C0043C00D46B1B9012849D1012A48D102232B
:101D4C0084F83E3084F842307DB3042D39D0012222
:101D5C0000212068FFF7D2FF012204212068FFF741
:101D6C00CDFF27E0DBB25FFA8CFC042912D00128EE
:101D7C0033D1012B2CD1012A31D1BCF1010F30D13F
:101D8C00022384F83E3084F83F3084F8423084F8E3
:101D9C004330D9E7012B1CD1BCF1010F1BD102231D
:101DAC0084F83F3084F84330CEE7012200212068CC
:101DBC00FFF7A4FF2268136843F0010313600020AF
:101DCC0006E0012204212068FFF798FFF2E70120CA
:101DDC0038BD0120FCE71846FAE70120F8E7184661
:101DEC00F6E71046F4E7000090F83C30012B2CD0BD
:101DFC0010B4012380F83C30022380F83D30036896
:101E0C005A689C6822F0700C0A6842EA0C025A600C
:101E1C0003680F4A93420AD0B3F1804F07D0A2F562
:101E2C009432934203D002F58062934204D124F0A1
:101E3C0080044A6814439C60012380F83D300023E1
:101E4C0080F83C30184610BC70470220704700BF29
:101E5C00002C01400C480D490D4A002302E0D458D7
:101E6C00C4500433C4188C42F9D30A4A0A4C0023D8
:101E7C0001E013600432A242FBD3FEF70DFF00F029
:101E8C0015F8FEF720FB70470000002054080020D6
:101E9C007833000854080020A40D0020FEE7000051
:101EAC00014B1868704700BF1000002070B50D4E34
:101EBC000D4D761BB61006D0002455F8043B0134AA
:101ECC009847A642F9D1094E094D00F0F7FC761B54
:101EDC00B61006D0002455F8043B01349847A642AE
:101EEC00F9D170BD6C3300086C33000874330008F2
:101EFC006C330008024B0146186800F003B800BFB1
:101F0C00100000202DE9F04F01F10B05162D0646AF
:101F1C0083B025D8102900F2B88000F0F1FA102512
:101F2C0018224FF0020CB54F3A445368A2F1080145
:101F3C008B4200F0B7805A68D96822F003021A4429
:101F4C009C683046E1608C60516803F1080441F0F4
:101F5C000101516000F0DAFA204603B0BDE8F08FC1
:101F6C0035F0070500F19180A94200F28E8000F057
:101F7C00C7FAB5F5FC7FC0F094816B0A00F08C8039
:101F8C00042B00F26A81AB0903F1390C03F138041C
:101F9C004FEACC00994F384443680838984206D130
:101FAC000CE0002980F22681DB68984206D05A6842
:101FBC0022F00302511B0F29F3DDA4463C69DFF824
:101FCC0040E274457AD0626822F00302531B0F2B57
:101FDC0000F37681002BC7E904EE80F26781B2F53D
:101FEC00007F80F019810121D30852090B449140E4
:101FFC007A6857F833000A4307EBC3010839A0602D
:10200C00E1607A6047F83340C46001214FEAAC03C9
:10201C009940914259D8114206D12CF0030C490039
:10202C0011420CF1040CFAD007EBCC09484664467B
:10203C00D0F80C80404508D11CE1002B80F22181A6
:10204C00D8F80C80404500F01581D8F8042022F017
:10205C000302531B0F2BF0DD08EB050145F00105C6
:10206C00C8F804503046D8E90264F460A66043F026
:10207C000104C7E904114C60C1E902EE48F80230D2
:10208C0000F044FA08F1080402E00C230024336049
:10209C00204603B0BDE8F08F4FF400704FF0400CB9
:1020AC003F2477E7D3689A4208BF0CF1020C7FF407
:1020BC0042AF3C69DFF848E1744584D101217A686C
:1020CC004FEAAC0399409142A5D9BC68636823F0F0
:1020DC0003094D4503D8A9EB05030F2B7ADCDFF878
:1020EC0024B1494BDBF800201B6801322B4404EB74
:1020FC00090A00F02F8103F580530F3323F47F6816
:10210C0028F00F084146304600F006FA411C024602
:10211C0000F0EF80824500F2EA803C4B19684144A4
:10212C000846196000F04981DBF800100193013179
:10213C001BBFA2EB0A0A5044CBF80020186012F027
:10214C00070B00F01181CBF108010A44CBF580514B
:10215C0090440831A1EB0801C1F30B0A51463046FB
:10216C00009200F0D9F9421CDDE9002300F04B810C
:10217C00801A00EB0A08196848F001005144BC426F
:10218C00BA601960506000F02481B9F10F0F40F271
:10219C0022814FF0050E6068A9F10C0C2CF0070C95
:1021AC0000F0010040EA0C006060BCF10F0F04EB82
:1021BC000C00C0E901EE00F22E8114465068144B5D
:1021CC001A688A4238BF1960124B1A688A4238BFA3
:1021DC00196090E0621943F0010345F00105656058
:1021EC003046BA600834536000F090F9204603B0D2
:1021FC00BDE8F08FD9681A44A2E600BF4004002065
:10220C004804002048080020940D0020640D002094
:10221C008C0D0020900D0020B2F5206F4FEA522358
:10222C005FD3142B00F2B18003F15C01C9005B3366
:10223C00781879580838884200F08F804B6823F062
:10224C000303934202D989688842F7D1C8687A6837
:10225C00C4E902108460CC60D7E6142B59D9542BF6
:10226C0000F29B802B0B03F16F0C03F16E044FEA11
:10227C00CC008FE60134A30700F108007FF4D8AE40
:10228C0053E0444642445368D8F80C1043F0010321
:10229C00536054F8083F3046D9608B6000F036F933
:1022AC00F6E64FEAD50C05F108023CE622445368E9
:1022BC00304643F00103536000F028F90834E7E698
:1022CC00611945F00105656043F00105C7E904118A
:1022DC003046C1E902EE4D60A35000F017F9083406
:1022EC00D6E6930903F13901C9003833A0E7BC42A3
:1022FC005ED0BC68606820F003084545A8EB050378
:10230C0002D80F2B3FF766AF304600F0FFF80024E1
:10231C00BEE603F15C0C03F15B044FEACC0039E63A
:10232C0059F808394B4540F095801CF0030F0CF11F
:10233C00FF3CF5D17B6823EA01037B60490099429D
:10234C003FF6C3AE11B9C0E6490004341942FBD0C4
:10235C00A44669E603F11008D4E601229B109A40CA
:10236C007B681A437A6073E702EB08014942C1F3B8
:10237C000B0A51463046009200F0CEF8431CDDE9C2
:10238C0000237FF4F5AEDA46F5E6542B26D8130B72
:10239C0003F16F01C9006E334AE7B3F5AA7F26D863
:1023AC00EB0B03F1780C03F177044FEACC00F1E569
:1023BC00294B186840441860B6E6CAF30B0CBCF104
:1023CC00000F7FF4B1AEBC68C84448F001006060F7
:1023DC00F5E61446F3E60123536095E7B3F5AA7FBF
:1023EC0024D8D30B03F17801C900773320E740F2EE
:1023FC005452934224D8AB0C03F17D0C03F17C04B2
:10240C004FEACC00C6E5ABF1080BD8444FF0000AFC
:10241C00A8EB0208AFE604F108013046009300F087
:10242C0003F9BC68009B60681968C8E640F2545117
:10243C008B420BD8930C03F17D01C9007C33F7E67A
:10244C004FF47E704FF07F0C7E24A3E54FF47E7129
:10245C007E23EDE67B6871E7640D0020830730B5C1
:10246C0048D0541E002A3FD00346CAB201E0013CBA
:10247C003AD303F8012B9D07F9D1032C2DD9CDB2FA
:10248C0045EA05250F2C45EA054536D9A4F110027D
:10249C0022F00F0C03F1200EE6444FEA121C03F15C
:1024AC00100242E9045542E9025510327245F8D146
:1024BC000CF1010214F00C0F03EB021204F00F0CE0
:1024CC0013D0ACF1040323F003030433134442F898
:1024DC00045B9342FBD10CF003042CB1CAB21C4434
:1024EC0003F8012B9C42FBD130BD64461346002CF3
:1024FC00F4D1F9E703461446BFE71A46A446E0E7D1
:10250C00014800F091B900BF9C0D0020014800F07B
:10251C008DB900BF9C0D0020002238B5064D044635
:10252C0008462A60FEF79AFB431C00D038BD2B6886
:10253C00002BFBD0236038BDA00D0020024B13B143
:10254C00024800F005B8704700000000692500083B
:10255C00002301461A46184600F06AB938B5084BF4
:10256C00084D5B1B9C1007D0043B1D44013C55F8E7
:10257C0004399847002CF9D1BDE8384000F0A4B9D3
:10258C007833000874330008F8B50C46234F064620
:10259C00FFF7B6FFBB685D68C4F57E6325F00305E5
:1025AC000F332B4423F47F6323F00F03A3F58054E4
:1025BC00B4F5805F07DB00213046FFF7ADFFBB6849
:1025CC002B44984204D03046FFF7A0FF0020F8BD02
:1025DC0030466142FFF7A0FF01300DD0104ABB68B6
:1025EC002D1B45F001055D60136830461B1B136005
:1025FC00FFF78CFF0120F8BD00213046FFF78CFF60
:10260C00BA68831A0F2BDEDD43F001035360054BD0
:10261C0003491B68C01A0860D5E700BF40040020BE
:10262C00640D00204808002000295ED0F8B50C4647
:10263C000646FFF765FF54F8042C784FA4F1080503
:10264C0022F001016818D7F808C04368844523F0CC
:10265C00030300F08780D207436034D454F8082C6D
:10266C0007F10804AD1A1144AA68A24268D000EB25
:10267C00030CDCF804E0D5F80CC01EF0010FC2F816
:10268C000CC0CCF8082000F0918041F001036B6085
:10269C000160B1F5007F31D24A09CB08012191408C
:1026AC007A6801331143796007EBC30257F8331092
:1026BC00083AC5E9021247F83350CD603046BDE800
:1026CC00F840FFF723BFC2185268D2070ED4194442
:1026DC0007F108048368A34270D0C268DA60936083
:1026EC0041F001036B606950D3E7704741F001037F
:1026FC00B1F5007F44F8043C0160CDD3B1F5206FF7
:10270C004FEA512347D28B0903F1390003F1380208
:10271C00C300F818FB580838984258D05A6822F071
:10272C0003028A4202D99B689842F7D1D868C5E95E
:10273C00023085603046DD60BDE8F840FFF7E6BE4C
:10274C00C2185268D20763D40B44D0E90212CA6093
:10275C00916043F001026A603046EB50BDE8F840EE
:10276C00FFF7D4BE0B44D10707D454F8082CAD1A8C
:10277C001344D5E90212CA60916043F001026A6009
:10278C00274ABD6012689A4298D8264B3046196881
:10279C00FFF7FAFE92E7142B0AD9542B1FD80B0B18
:1027AC0003F16F0003F16E02C300B2E7194491E725
:1027BC0003F15C0003F15B02C300AAE741F00103E3
:1027CC00C7E90455C5E902446B60695076E70121FD
:1027DC00921001FA02F279680A437A60A7E7B3F51E
:1027EC00AA7F06D8CB0B03F1780003F17702C30064
:1027FC008FE740F25452934206D88B0C03F17D00C4
:10280C0003F17C02C30084E74FF47E737E2280E7E1
:10281C0041F001036B60016050E700BF40040020F1
:10282C004C080020940D0020704700BF704700BF7B
:10283C002DE9F047DFF87CA00646DAF80000984650
:10284C000F469146FFF7F0FF1B4B1B68D3F848412E
:10285C0024B365681F2D26DC5EB96B1C0235DAF8D3
:10286C000000636044F82570FFF7E0FF0020BDE82E
:10287C00F087012304EB8501C1F88890D4F88821F6
:10288C00AB401A43022EC4F88821C1F80881E4D168
:10289C00D4F88C211343C4F88C31DEE703F5A6740D
:1028AC00C3F84841D5E7DAF80000FFF7BFFF4FF057
:1028BC00FF30DCE75008002068330008F8B500BF93
:1028CC00F8BC08BC9E467047F8B500BFF8BC08BC05
:0428DC009E4670475D
:1028E00000000000000000000000000000000000E8
:1028F0003F400000000000000000300040003000B9
:102900004000000009000BC03D000BC03D00090065
:1029100018C024407FE0224031800000180024C00D
:102920001B000D803240018003801C4027401C802A
:1029300007400040100060000000000000000000A0
:102940000000000000001F802040402000004020C8
:1029500020401F8000000000090006001F800600C4
:1029600009000000040004003F800400040000008F
:1029700000100060000000000000000004000400DF
:1029800004000400040000000000004000000000FB
:1029900000000000002001C00600380040000000D8
:1029A0001F802040204020401F8000000000104079
:1029B0003FC000400000000018C0214022402440D9
:1029C0001840000010802040244024401B8000005C
:1029D00002000D0011003FC0014000003C80244077
:1029E00024402440238000001F80244024403440A1
:1029F000038000003000200027C0380020000000C5
:102A00001B802440244024401B8000001C0022C066
:102A1000224022401F80000000000000084000000B
:102A20000000000000000000046000000000000042
:102A3000000004000A001100208040400900090045
:102A4000090009000900000000004040208011003A
:102A50000A00040018002000234024001800000091
:102A60001F802040274029401F400000004007C031
:102A700039000F0001C0004020403FC024402440E6
:102A80001B8000001F80204020402040308000003C
:102A900020403FC0204020401F80000020403FC019
:102AA00024402E4030C0000020403FC024402E0073
:102AB000300000000F0010802040224033800200D0
:102AC00020403FC0040004003FC020402040204080
:102AD0003FC02040204000000060202020203FC058
:102AE0002000200020403FC024400B0030C0204088
:102AF00020403FC020400040004000C03FC03C009C
:102B000003C03C003FC0000020403FC00C402300F9
:102B10003FC020001F802040204020401F80000038
:102B200020403FC024402400180000001F802140A6
:102B3000214020E01FA0000020403FC0244026008C
:102B400019C0004018C024402440224031800000B9
:102B5000300020403FC020403000000020003F8077
:102B6000004000403F80200020003E0001C00700E0
:102B700038002000380007C03C0007C038000000C3
:102B8000204039C0060039C02040000020003840F5
:102B900007C0384020000000304021C026403840A7
:102BA00020C00000000000007FE040204020000026
:102BB000000070000C000380004000000000402076
:102BC00040207FE0000000000000200040002000C6
:102BD0000000000000100010001000100010001095
:102BE0000000000040000000000000000000028023
:102BF0000540054003C0004020003FC004400440A1
:102C000003800000000003800440044006400000F0
:102C100000000380044024403FC0004000000380C7
:102C20000540054003400000000004401FC0244050
:102C300024402000000002E005500550065004200A
:102C400020403FC00440040003C000400000044096
:102C500027C000400000000000100010041027E012
:102C60000000000020403FC00140070004C00440B5
:102C7000204020403FC000400040000007C004004A
:102C800007C0040003C00000044007C00440040063
:102C900003C00040000003800440044003800000A3
:102CA000041007F00450044003800000000003807B
:102CB0000440045007F00010044007C00240040024
:102CC00004000000000006400540054004C000006C
:102CD000000004001F800440004000000400078042
:102CE0000040044007C000400400070004C0018009
:102CF00006000400060001C0070001C00600000035
:102D0000044006C0010006C0044000000410071083
:102D100004E00180060004000000044005C00640F5
:102D2000044000000000000004007BE040200000A0
:102D3000000000000000FFF0000000000000402044
:102D40007BE0040000000000400080004000200004
:102D50002000400000000000000000000000000013
:102D6000000000000000000000001FCC000C00006C
:102D70000000000000000800300060000800300083
:102D800060000000022003FC1E20022003FC1E2025
:102D90000220000000000E1811043FFF10840C7880
:102DA000000000000F0010840F3800C0077818845E
:102DB0000078000000780F8410C411240E9800E4FD
:102DC0000084000808006800700000000000000097
:102DD0000000000000000000000007E018182004B8
:102DE00040020000000040022004181807E0000024
:102DF000000000000240024001800FF0018002400C
:102E0000024000000080008000800FF800800080F9
:102E1000008000000001000D000E00000000000016
:102E20000000000000000080008000800080008022
:102E3000008000800000000C000C0000000000007A
:102E4000000000000000000600180060018006007D
:102E500018002000000007F00808100410040808FB
:102E600007F000000000080408041FFC0004000430
:102E70000000000000000E0C1014102410441184F7
:102E80000E0C000000000C1810041104110412882C
:102E90000C700000000000E00320042408241FFC44
:102EA0000024000000001F981084110411041088F1
:102EB00010700000000007F0088811041104188841
:102EC0000070000000001C00100010FC13001C002B
:102ED0001000000000000E381144108410841144CA
:102EE0000E38000000000700088C104410440888C9
:102EF00007F00000000000000000030C030C0000BD
:102F000000000000000000000001010600000000B9
:102F100000000000000000800140022004100808AA
:102F200010040000022002200220022002200220C1
:102F300002200000000010040808041002200140D4
:102F40000080000000000E001200100C106C1080B9
:102F50000F00000003E00C1813E4142417C4082821
:102F600007D000000004003C03C41C40074000E4FC
:102F7000001C000410041FFC1104110411040E882D
:102F80000070000003E00C18100410041004100876
:102F90001C10000010041FFC10041004100408088A
:102FA00007F0000010041FFC1104110417C41004E2
:102FB0000818000010041FFC1104110017C01000B5
:102FC0000800000003E00C181004100410441C78E2
:102FD0000040000010041FFC10840080008010845A
:102FE0001FFC10040000100410041FFC1004100447
:102FF0000000000000030001100110011FFE10007E
:103000001000000010041FFC110403801464181C3D
:103010001004000010041FFC10040004000400044D
:10302000000C000010041FFC1F0000FC1F001FFC10
:103030001004000010041FFC0C04030000E0101832
:103040001FFC100007F00808100410041004080802
:1030500007F0000010041FFC108410801080108006
:103060000F00000007F0081810241024101C080A94
:1030700007F2000010041FFC1104110011C01130F0
:103080000E0C000400000E1C110410841084104467
:103090001C3800001800100010041FFC1004100061
:1030A0001800000010001FF81004000400041004B1
:1030B0001FF8100010001E0011E0001C00701380AB
:1030C0001C0010001FC0103C00E01F0000E0103C7E
:1030D0001FC000001004180C163401C001C01634C3
:1030E000180C100410001C00130400FC13041C0036
:1030F000100000000804101C1064108413041C0449
:10310000101800000000000000007FFE4002400296
:1031100040020000000030000C0003800060001C32
:103120000003000000004002400240027FFE000059
:1031300000000000000000002000400040004000AF
:103140002000000000010001000100010001000159
:1031500000010001000040004000200000000000CD
:1031600000000000000000980124014401440144D3
:1031700000FC000410001FFC00880104010400880A
:1031800000700000000000700088010401040104C8
:10319000008800000000007000880104010411088C
:1031A0001FFC0004000000F80144014401440144F4
:1031B00000C800000000010401040FFC1104110408
:1031C00011001800000000D601290129012901C9B8
:1031D0000106000010041FFC00840100010001042E
:1031E00000FC000400000104190419FC00040004A0
:1031F000000000000000000300010101190119FE98
:103200000000000010041FFC0024004001B4010C69
:10321000010400000000100410041FFC000400045E
:1032200000000000010401FC0104010001FC010494
:10323000010000FC010401FC008401000100010404
:1032400000FC0004000000F8010401040104010472
:1032500000F80000010101FF00850104010400885D
:1032600000700000000000700088010401040105E6
:1032700001FF00010104010401FC008401040100BC
:1032800001800000000000CC01240124012401245D
:103290000198000000000100010007F8010401048A
:1032A00000000000010001F800040004000401080F
:1032B00001FC0004010001800170000C001001609D
:1032C0000180010001F0010C003001C00030010C50
:1032D00001F0010000000104018C00740170018CF8
:1032E00001040000010101810171000E001801605C
:1032F0000180010000000184010C013401440184BB
:10330000010C0000000000000000000001003EFC75
:10331000400240020000000000000000FFFF00002B
:10332000000000000000400240023EFC01000000DE
:1033300000000000000060008000800040004000AD
:103340002000200000000000000000000102030433
:103350000607080902030405060708090A0B0C0DF5
:0C3360000E0F10100000000018000020EC
:08336C004925000831010008A9
:043374000D0100083F
:10337800680100000024F4000100000010000000B3
:1033880018000020000000000000000004030020D6
:103398006C030020D403002000000000000000009F
:1033A8000000000000000000000000000000000015
:1033B8000000000000000000000000000000000005
:1033C80000000000000000000000000000000000F5
:1033D80000000000000000000000000000000000E5
:1033E80000000000000000000000000000000000D5
:1033F80000000000000000000000000000000000C5
:1034080000000000000000000000000000000000B4
:1034180000000000000000000000000000000000A4
:103428000000000000000000000000000000000094
:1034380001000000000000000E33CDAB34126DE631
:10344800ECDE05000B00000000000000000000009A
:103458000000000000000000000000000000000064
:103468000000000000000000000000000000000054
:103478000000000000000000000000000000000044
:103488000000000000000000000000000000000034
:1037B8000000000000000000400400204004002039
:1037C8004804002048040020500400205004002031
:1037D80058040020580400206004002060040020E1
:1037E8006804002068040020700400207004002091
:1037F8007804002078040020800400208004002041
:1038080088040020880400209004002090040020F0
:103818009804002098040020A0040020A0040020A0
:10382800A8040020A8040020B0040020B004002050
:10383800B8040020B8040020C0040020C004002000
:10384800C8040020C8040020D0040020D0040020B0
:10385800D8040020D8040020E0040020E004002060
:10386800E8040020E8040020F0040020F004002010
:10387800F8040020F80400200005002000050020BE
:10388800080500200805002010050020100500206C
:10389800180500201805002020050020200500201C
:1038A80028050020280500203005002030050020CC
:1038B800380500203805002040050020400500207C
:1038C800480500204805002050050020500500202C
:1038D80058050020580500206005002060050020DC
:1038E800680500206805002070050020700500208C
:1038F800780500207805002080050020800500203C
:1039080088050020880500209005002090050020EB
:103918009805002098050020A0050020A00500209B
:10392800A8050020A8050020B0050020B00500204B
:10393800B8050020B8050020C0050020C0050020FB
:10394800C8050020C8050020D0050020D0050020AB
:10395800D8050020D8050020E0050020E00500205B
:10396800E8050020E8050020F0050020F00500200B
:10397800F8050020F80500200006002000060020B9
:103988000806002008060020100600201006002067
:103998001806002018060020200600202006002017
:1039A80028060020280600203006002030060020C7
:1039B8003806002038060020400600204006002077
:1039C8004806002048060020500600205006002027
:1039D80058060020580600206006002060060020D7
:1039E8006806002068060020700600207006002087
:1039F8007806002078060020800600208006002037
:103A080088060020880600209006002090060020E6
:103A18009806002098060020A0060020A006002096
:103A2800A8060020A8060020B0060020B006002046
:103A3800B8060020B8060020C0060020C0060020F6
:103A4800C8060020C8060020D0060020D0060020A6
:103A5800D8060020D8060020E0060020E006002056
:103A6800E8060020E8060020F0060020F006002006
:103A7800F8060020F80600200007002000070020B4
:103A88000807002008070020100700201007002062
:103A98001807002018070020200700202007002012
:103AA80028070020280700203007002030070020C2
:103AB8003807002038070020400700204007002072
:103AC8004807002048070020500700205007002022
:103AD80058070020580700206007002060070020D2
:103AE8006807002068070020700700207007002082
:103AF8007807002078070020800700208007002032
:103B080088070020880700209007002090070020E1
:103B18009807002098070020A0070020A007002091
:103B2800A8070020A8070020B0070020B007002041
:103B3800B8070020B8070020C0070020C0070020F1
:103B4800C8070020C8070020D0070020D0070020A1
:103B5800D8070020D8070020E0070020E007002051
:103B6800E8070020E8070020F0070020F007002001
:103B7800F8070020F80700200008002000080020AF
:103B8800080800200808002010080020100800205D
:103B9800180800201808002020080020200800200D
:103BA80028080020280800203008002030080020BD
:103BB8003808002038080020FFFFFFFF000002003F
:043BC800980D002034
:0400000508001E6170
:00000001FF
